{
  "_format": "hh-sol-artifact-1",
  "contractName": "Decentraveller",
  "sourceName": "contracts/Decentraveller.sol",
  "abi": [
    {
      "inputs": [
        {
          "internalType": "address",
          "name": "_placesFactory",
          "type": "address"
        }
      ],
      "stateMutability": "nonpayable",
      "type": "constructor"
    },
    {
      "inputs": [
        {
          "internalType": "address",
          "name": "sender",
          "type": "address"
        }
      ],
      "name": "Address__Unregistered",
      "type": "error"
    },
    {
      "inputs": [
        {
          "internalType": "uint256",
          "name": "placeId",
          "type": "uint256"
        }
      ],
      "name": "Place__NonExistent",
      "type": "error"
    },
    {
      "inputs": [
        {
          "internalType": "string",
          "name": "nickname",
          "type": "string"
        }
      ],
      "name": "Profile__NicknameInUse",
      "type": "error"
    },
    {
      "anonymous": false,
      "inputs": [
        {
          "indexed": false,
          "internalType": "address",
          "name": "owner",
          "type": "address"
        },
        {
          "indexed": false,
          "internalType": "string",
          "name": "nickname",
          "type": "string"
        },
        {
          "indexed": false,
          "internalType": "string",
          "name": "name",
          "type": "string"
        },
        {
          "indexed": false,
          "internalType": "string",
          "name": "country",
          "type": "string"
        },
        {
          "indexed": false,
          "internalType": "enum DecentravellerDataTypes.DecentravellerGender",
          "name": "gender",
          "type": "uint8"
        },
        {
          "indexed": false,
          "internalType": "enum DecentravellerDataTypes.DecentravellerInterest",
          "name": "interest",
          "type": "uint8"
        }
      ],
      "name": "UpdatedProfile",
      "type": "event"
    },
    {
      "inputs": [
        {
          "internalType": "string",
          "name": "_name",
          "type": "string"
        },
        {
          "internalType": "string",
          "name": "_latitude",
          "type": "string"
        },
        {
          "internalType": "string",
          "name": "_longitude",
          "type": "string"
        },
        {
          "internalType": "string",
          "name": "_physicalAddress",
          "type": "string"
        },
        {
          "internalType": "enum DecentravellerDataTypes.DecentravellerPlaceCategory",
          "name": "category",
          "type": "uint8"
        }
      ],
      "name": "addPlace",
      "outputs": [
        {
          "internalType": "uint256",
          "name": "placeId",
          "type": "uint256"
        }
      ],
      "stateMutability": "nonpayable",
      "type": "function"
    },
    {
      "inputs": [],
      "name": "getCurrentPlaceId",
      "outputs": [
        {
          "internalType": "uint256",
          "name": "",
          "type": "uint256"
        }
      ],
      "stateMutability": "view",
      "type": "function"
    },
    {
      "inputs": [
        {
          "internalType": "uint256",
          "name": "placeId",
          "type": "uint256"
        }
      ],
      "name": "getPlaceAddress",
      "outputs": [
        {
          "internalType": "address",
          "name": "",
          "type": "address"
        }
      ],
      "stateMutability": "view",
      "type": "function"
    },
    {
      "inputs": [
        {
          "internalType": "string",
          "name": "_nickname",
          "type": "string"
        },
        {
          "internalType": "string",
          "name": "_name",
          "type": "string"
        },
        {
          "internalType": "string",
          "name": "_country",
          "type": "string"
        },
        {
          "internalType": "enum DecentravellerDataTypes.DecentravellerGender",
          "name": "_gender",
          "type": "uint8"
        },
        {
          "internalType": "enum DecentravellerDataTypes.DecentravellerInterest",
          "name": "_interest",
          "type": "uint8"
        }
      ],
      "name": "registerProfile",
      "outputs": [
        {
          "internalType": "address",
          "name": "owner",
          "type": "address"
        }
      ],
      "stateMutability": "nonpayable",
      "type": "function"
    }
  ],
  "bytecode": "0x60806040523480156200001157600080fd5b50604051620015e8380380620015e88339818101604052810190620000379190620000f0565b80600160006101000a81548173ffffffffffffffffffffffffffffffffffffffff021916908373ffffffffffffffffffffffffffffffffffffffff160217905550600080819055505062000122565b600080fd5b600073ffffffffffffffffffffffffffffffffffffffff82169050919050565b6000620000b8826200008b565b9050919050565b620000ca81620000ab565b8114620000d657600080fd5b50565b600081519050620000ea81620000bf565b92915050565b60006020828403121562000109576200010862000086565b5b60006200011984828501620000d9565b91505092915050565b6114b680620001326000396000f3fe608060405234801561001057600080fd5b506004361061004c5760003560e01c80635b5969291461005157806391eb1a5c1461006f578063b9d8af891461009f578063dbd0a39d146100cf575b600080fd5b6100596100ff565b60405161006691906108fd565b60405180910390f35b61008960048036038101906100849190610abc565b610108565b6040516100969190610bcc565b60405180910390f35b6100b960048036038101906100b49190610c0c565b610638565b6040516100c691906108fd565b60405180910390f35b6100e960048036038101906100e49190610d23565b610831565b6040516100f69190610bcc565b60405180910390f35b60008054905090565b60008073ffffffffffffffffffffffffffffffffffffffff166003876040516101319190610dc1565b908152602001604051809103902060009054906101000a900473ffffffffffffffffffffffffffffffffffffffff1673ffffffffffffffffffffffffffffffffffffffff16141580156101ee57503373ffffffffffffffffffffffffffffffffffffffff166003876040516101a69190610dc1565b908152602001604051809103902060009054906101000a900473ffffffffffffffffffffffffffffffffffffffff1673ffffffffffffffffffffffffffffffffffffffff1614155b1561023057856040517f28e324050000000000000000000000000000000000000000000000000000000081526004016102279190610e22565b60405180910390fd5b600073ffffffffffffffffffffffffffffffffffffffff16600260003373ffffffffffffffffffffffffffffffffffffffff1673ffffffffffffffffffffffffffffffffffffffff16815260200190815260200160002060000160009054906101000a900473ffffffffffffffffffffffffffffffffffffffff1673ffffffffffffffffffffffffffffffffffffffff1614610349576003600260003373ffffffffffffffffffffffffffffffffffffffff1673ffffffffffffffffffffffffffffffffffffffff1681526020019081526020016000206001016040516103179190610f3c565b908152602001604051809103902060006101000a81549073ffffffffffffffffffffffffffffffffffffffff02191690555b3360038760405161035a9190610dc1565b908152602001604051809103902060006101000a81548173ffffffffffffffffffffffffffffffffffffffff021916908373ffffffffffffffffffffffffffffffffffffffff16021790555033600260003373ffffffffffffffffffffffffffffffffffffffff1673ffffffffffffffffffffffffffffffffffffffff16815260200190815260200160002060000160006101000a81548173ffffffffffffffffffffffffffffffffffffffff021916908373ffffffffffffffffffffffffffffffffffffffff16021790555085600260003373ffffffffffffffffffffffffffffffffffffffff1673ffffffffffffffffffffffffffffffffffffffff168152602001908152602001600020600101908161047691906110ea565b5084600260003373ffffffffffffffffffffffffffffffffffffffff1673ffffffffffffffffffffffffffffffffffffffff16815260200190815260200160002060020190816104c691906110ea565b5083600260003373ffffffffffffffffffffffffffffffffffffffff1673ffffffffffffffffffffffffffffffffffffffff168152602001908152602001600020600301908161051691906110ea565b5082600260003373ffffffffffffffffffffffffffffffffffffffff1673ffffffffffffffffffffffffffffffffffffffff16815260200190815260200160002060040160006101000a81548160ff0219169083600281111561057c5761057b6111bc565b5b021790555081600260003373ffffffffffffffffffffffffffffffffffffffff1673ffffffffffffffffffffffffffffffffffffffff16815260200190815260200160002060040160016101000a81548160ff021916908360018111156105e6576105e56111bc565b5b02179055507fe3c953f242e2447b8416abe66f6d2c15c6fb7ebe71a275f216bac284fbcc22d53387878787876040516106249695949392919061127b565b60405180910390a133905095945050505050565b60008073ffffffffffffffffffffffffffffffffffffffff16600260003373ffffffffffffffffffffffffffffffffffffffff1673ffffffffffffffffffffffffffffffffffffffff16815260200190815260200160002060000160009054906101000a900473ffffffffffffffffffffffffffffffffffffffff1673ffffffffffffffffffffffffffffffffffffffff160361070c57336040517ffd5746510000000000000000000000000000000000000000000000000000000081526004016107039190610bcc565b60405180910390fd5b600160008082825461071e9190611320565b92505081905550600160009054906101000a900473ffffffffffffffffffffffffffffffffffffffff1673ffffffffffffffffffffffffffffffffffffffff166355ffbacc6000548888888888336040518863ffffffff1660e01b815260040161078e979695949392919061139c565b6020604051808303816000875af11580156107ad573d6000803e3d6000fd5b505050506040513d601f19601f820116820180604052508101906107d19190611453565b600460008054815260200190815260200160002060006101000a81548173ffffffffffffffffffffffffffffffffffffffff021916908373ffffffffffffffffffffffffffffffffffffffff160217905550600054905095945050505050565b6000806004600084815260200190815260200160002060009054906101000a900473ffffffffffffffffffffffffffffffffffffffff169050600073ffffffffffffffffffffffffffffffffffffffff168173ffffffffffffffffffffffffffffffffffffffff16036108db57826040517f7f66cdb00000000000000000000000000000000000000000000000000000000081526004016108d291906108fd565b60405180910390fd5b80915050919050565b6000819050919050565b6108f7816108e4565b82525050565b600060208201905061091260008301846108ee565b92915050565b6000604051905090565b600080fd5b600080fd5b600080fd5b600080fd5b6000601f19601f8301169050919050565b7f4e487b7100000000000000000000000000000000000000000000000000000000600052604160045260246000fd5b61097f82610936565b810181811067ffffffffffffffff8211171561099e5761099d610947565b5b80604052505050565b60006109b1610918565b90506109bd8282610976565b919050565b600067ffffffffffffffff8211156109dd576109dc610947565b5b6109e682610936565b9050602081019050919050565b82818337600083830152505050565b6000610a15610a10846109c2565b6109a7565b905082815260208101848484011115610a3157610a30610931565b5b610a3c8482856109f3565b509392505050565b600082601f830112610a5957610a5861092c565b5b8135610a69848260208601610a02565b91505092915050565b60038110610a7f57600080fd5b50565b600081359050610a9181610a72565b92915050565b60028110610aa457600080fd5b50565b600081359050610ab681610a97565b92915050565b600080600080600060a08688031215610ad857610ad7610922565b5b600086013567ffffffffffffffff811115610af657610af5610927565b5b610b0288828901610a44565b955050602086013567ffffffffffffffff811115610b2357610b22610927565b5b610b2f88828901610a44565b945050604086013567ffffffffffffffff811115610b5057610b4f610927565b5b610b5c88828901610a44565b9350506060610b6d88828901610a82565b9250506080610b7e88828901610aa7565b9150509295509295909350565b600073ffffffffffffffffffffffffffffffffffffffff82169050919050565b6000610bb682610b8b565b9050919050565b610bc681610bab565b82525050565b6000602082019050610be16000830184610bbd565b92915050565b60038110610bf457600080fd5b50565b600081359050610c0681610be7565b92915050565b600080600080600060a08688031215610c2857610c27610922565b5b600086013567ffffffffffffffff811115610c4657610c45610927565b5b610c5288828901610a44565b955050602086013567ffffffffffffffff811115610c7357610c72610927565b5b610c7f88828901610a44565b945050604086013567ffffffffffffffff811115610ca057610c9f610927565b5b610cac88828901610a44565b935050606086013567ffffffffffffffff811115610ccd57610ccc610927565b5b610cd988828901610a44565b9250506080610cea88828901610bf7565b9150509295509295909350565b610d00816108e4565b8114610d0b57600080fd5b50565b600081359050610d1d81610cf7565b92915050565b600060208284031215610d3957610d38610922565b5b6000610d4784828501610d0e565b91505092915050565b600081519050919050565b600081905092915050565b60005b83811015610d84578082015181840152602081019050610d69565b60008484015250505050565b6000610d9b82610d50565b610da58185610d5b565b9350610db5818560208601610d66565b80840191505092915050565b6000610dcd8284610d90565b915081905092915050565b600082825260208201905092915050565b6000610df482610d50565b610dfe8185610dd8565b9350610e0e818560208601610d66565b610e1781610936565b840191505092915050565b60006020820190508181036000830152610e3c8184610de9565b905092915050565b7f4e487b7100000000000000000000000000000000000000000000000000000000600052602260045260246000fd5b60006002820490506001821680610e8b57607f821691505b602082108103610e9e57610e9d610e44565b5b50919050565b60008190508160005260206000209050919050565b60008154610ec681610e73565b610ed08186610d5b565b94506001821660008114610eeb5760018114610f0057610f33565b60ff1983168652811515820286019350610f33565b610f0985610ea4565b60005b83811015610f2b57815481890152600182019150602081019050610f0c565b838801955050505b50505092915050565b6000610f488284610eb9565b915081905092915050565b60006020601f8301049050919050565b600082821b905092915050565b600060088302610fa07fffffffffffffffffffffffffffffffffffffffffffffffffffffffffffffffff82610f63565b610faa8683610f63565b95508019841693508086168417925050509392505050565b6000819050919050565b6000610fe7610fe2610fdd846108e4565b610fc2565b6108e4565b9050919050565b6000819050919050565b61100183610fcc565b61101561100d82610fee565b848454610f70565b825550505050565b600090565b61102a61101d565b611035818484610ff8565b505050565b5b818110156110595761104e600082611022565b60018101905061103b565b5050565b601f82111561109e5761106f81610ea4565b61107884610f53565b81016020851015611087578190505b61109b61109385610f53565b83018261103a565b50505b505050565b600082821c905092915050565b60006110c1600019846008026110a3565b1980831691505092915050565b60006110da83836110b0565b9150826002028217905092915050565b6110f382610d50565b67ffffffffffffffff81111561110c5761110b610947565b5b6111168254610e73565b61112182828561105d565b600060209050601f8311600181146111545760008415611142578287015190505b61114c85826110ce565b8655506111b4565b601f19841661116286610ea4565b60005b8281101561118a57848901518255600182019150602085019450602081019050611165565b868310156111a757848901516111a3601f8916826110b0565b8355505b6001600288020188555050505b505050505050565b7f4e487b7100000000000000000000000000000000000000000000000000000000600052602160045260246000fd5b600381106111fc576111fb6111bc565b5b50565b600081905061120d826111eb565b919050565b600061121d826111ff565b9050919050565b61122d81611212565b82525050565b60028110611244576112436111bc565b5b50565b600081905061125582611233565b919050565b600061126582611247565b9050919050565b6112758161125a565b82525050565b600060c0820190506112906000830189610bbd565b81810360208301526112a28188610de9565b905081810360408301526112b68187610de9565b905081810360608301526112ca8186610de9565b90506112d96080830185611224565b6112e660a083018461126c565b979650505050505050565b7f4e487b7100000000000000000000000000000000000000000000000000000000600052601160045260246000fd5b600061132b826108e4565b9150611336836108e4565b925082820190508082111561134e5761134d6112f1565b5b92915050565b60038110611365576113646111bc565b5b50565b600081905061137682611354565b919050565b600061138682611368565b9050919050565b6113968161137b565b82525050565b600060e0820190506113b1600083018a6108ee565b81810360208301526113c38189610de9565b905081810360408301526113d78188610de9565b905081810360608301526113eb8187610de9565b905081810360808301526113ff8186610de9565b905061140e60a083018561138d565b61141b60c0830184610bbd565b98975050505050505050565b61143081610bab565b811461143b57600080fd5b50565b60008151905061144d81611427565b92915050565b60006020828403121561146957611468610922565b5b60006114778482850161143e565b9150509291505056fea2646970667358221220ea60a9edc14d32e8442c7c1a2bf88298a3b5090b548f3dc4c7922165236c05e064736f6c63430008110033",
  "linkReferences": {},
  "deployedLinkReferences": {}
}