{
  "address": "0x5FbDB2315678afecb367f032d93F642f64180aa3",
  "abi": [
    {
      "inputs": [
        {
          "internalType": "string",
          "name": "_name",
          "type": "string"
        },
        {
          "internalType": "enum Decentraveller.TourismField",
          "name": "_tourismField",
          "type": "uint8"
        },
        {
          "internalType": "string",
          "name": "_latitude",
          "type": "string"
        },
        {
          "internalType": "string",
          "name": "_longitude",
          "type": "string"
        }
      ],
      "name": "addPlace",
      "outputs": [],
      "stateMutability": "nonpayable",
      "type": "function"
    },
    {
      "inputs": [
        {
          "internalType": "string",
          "name": "_placeName",
          "type": "string"
        },
        {
          "internalType": "string",
          "name": "_review",
          "type": "string"
        }
      ],
      "name": "addReview",
      "outputs": [],
      "stateMutability": "nonpayable",
      "type": "function"
    },
    {
      "inputs": [
        {
          "internalType": "string",
          "name": "_placeName",
          "type": "string"
        }
      ],
      "name": "getReviews",
      "outputs": [
        {
          "internalType": "string[]",
          "name": "",
          "type": "string[]"
        }
      ],
      "stateMutability": "view",
      "type": "function"
    },
    {
      "inputs": [],
      "name": "lastPlaceId",
      "outputs": [
        {
          "internalType": "uint256",
          "name": "",
          "type": "uint256"
        }
      ],
      "stateMutability": "view",
      "type": "function"
    },
    {
      "inputs": [
        {
          "internalType": "string",
          "name": "",
          "type": "string"
        }
      ],
      "name": "places",
      "outputs": [
        {
          "internalType": "enum Decentraveller.TourismField",
          "name": "TourismField",
          "type": "uint8"
        },
        {
          "internalType": "string",
          "name": "latitude",
          "type": "string"
        },
        {
          "internalType": "string",
          "name": "longitude",
          "type": "string"
        },
        {
          "internalType": "uint256",
          "name": "placeId",
          "type": "uint256"
        }
      ],
      "stateMutability": "view",
      "type": "function"
    }
  ],
  "transactionHash": "0x5ad77cfb6356400491d6bb9803979de72be2ccbe39a0224c1341de6d3b238b81",
  "args": [],
  "numDeployments": 1,
  "solcInputHash": "40226ced0445db6dfdc7ad868874b440",
  "bytecode": "0x60806040526000805534801561001457600080fd5b506110c0806100246000396000f3fe608060405234801561001057600080fd5b50600436106100575760003560e01c8063283d7a9c1461005c5780632978465d1461007a5780634c43293d146100aa57806374386a84146100c6578063adb489a3146100f9575b600080fd5b610064610115565b60405161007191906106d7565b60405180910390f35b610094600480360381019061008f919061084c565b61011b565b6040516100a191906109d6565b60405180910390f35b6100c460048036038101906100bf9190610a1d565b610279565b005b6100e060048036038101906100db919061084c565b6103c5565b6040516100f09493929190610b99565b60405180910390f35b610113600480360381019061010e9190610bec565b610528565b005b60005481565b6060600060018360405161012f9190610ca0565b90815260200160405180910390206003015403610181576040517f08c379a000000000000000000000000000000000000000000000000000000000815260040161017890610d29565b60405180910390fd5b6001826040516101919190610ca0565b9081526020016040518091039020600401805480602002602001604051908101604052809291908181526020016000905b8282101561026e5783829060005260206000200180546101e190610d78565b80601f016020809104026020016040519081016040528092919081815260200182805461020d90610d78565b801561025a5780601f1061022f5761010080835404028352916020019161025a565b820191906000526020600020905b81548152906001019060200180831161023d57829003601f168201915b5050505050815260200190600101906101c2565b505050509050919050565b600160008082825461028b9190610dd8565b925050819055506040518060a001604052808460028111156102b0576102af610ad8565b5b81526020018381526020018281526020016000548152602001600067ffffffffffffffff8111156102e4576102e3610721565b5b60405190808252806020026020018201604052801561031757816020015b60608152602001906001900390816103025790505b5081525060018560405161032b9190610ca0565b908152602001604051809103902060008201518160000160006101000a81548160ff0219169083600281111561036457610363610ad8565b5b0217905550602082015181600101908161037e9190610fb8565b5060408201518160020190816103949190610fb8565b506060820151816003015560808201518160040190805190602001906103bb9291906105e4565b5090505050505050565b6001818051602081018201805184825260208301602085012081835280955050505050506000915090508060000160009054906101000a900460ff169080600101805461041190610d78565b80601f016020809104026020016040519081016040528092919081815260200182805461043d90610d78565b801561048a5780601f1061045f5761010080835404028352916020019161048a565b820191906000526020600020905b81548152906001019060200180831161046d57829003601f168201915b50505050509080600201805461049f90610d78565b80601f01602080910402602001604051908101604052809291908181526020018280546104cb90610d78565b80156105185780601f106104ed57610100808354040283529160200191610518565b820191906000526020600020905b8154815290600101906020018083116104fb57829003601f168201915b5050505050908060030154905084565b600060018360405161053a9190610ca0565b9081526020016040518091039020600301540361058c576040517f08c379a000000000000000000000000000000000000000000000000000000000815260040161058390610d29565b60405180910390fd5b60018260405161059c9190610ca0565b9081526020016040518091039020600401819080600181540180825580915050600190039060005260206000200160009091909190915090816105df9190610fb8565b505050565b82805482825590600052602060002090810192821561062c579160200282015b8281111561062b57825182908161061b9190610fb8565b5091602001919060010190610604565b5b509050610639919061063d565b5090565b5b8082111561065d57600081816106549190610661565b5060010161063e565b5090565b50805461066d90610d78565b6000825580601f1061067f575061069e565b601f01602090049060005260206000209081019061069d91906106a1565b5b50565b5b808211156106ba5760008160009055506001016106a2565b5090565b6000819050919050565b6106d1816106be565b82525050565b60006020820190506106ec60008301846106c8565b92915050565b6000604051905090565b600080fd5b600080fd5b600080fd5b600080fd5b6000601f19601f8301169050919050565b7f4e487b7100000000000000000000000000000000000000000000000000000000600052604160045260246000fd5b61075982610710565b810181811067ffffffffffffffff8211171561077857610777610721565b5b80604052505050565b600061078b6106f2565b90506107978282610750565b919050565b600067ffffffffffffffff8211156107b7576107b6610721565b5b6107c082610710565b9050602081019050919050565b82818337600083830152505050565b60006107ef6107ea8461079c565b610781565b90508281526020810184848401111561080b5761080a61070b565b5b6108168482856107cd565b509392505050565b600082601f83011261083357610832610706565b5b81356108438482602086016107dc565b91505092915050565b600060208284031215610862576108616106fc565b5b600082013567ffffffffffffffff8111156108805761087f610701565b5b61088c8482850161081e565b91505092915050565b600081519050919050565b600082825260208201905092915050565b6000819050602082019050919050565b600081519050919050565b600082825260208201905092915050565b60005b838110156108fb5780820151818401526020810190506108e0565b60008484015250505050565b6000610912826108c1565b61091c81856108cc565b935061092c8185602086016108dd565b61093581610710565b840191505092915050565b600061094c8383610907565b905092915050565b6000602082019050919050565b600061096c82610895565b61097681856108a0565b935083602082028501610988856108b1565b8060005b858110156109c457848403895281516109a58582610940565b94506109b083610954565b925060208a0199505060018101905061098c565b50829750879550505050505092915050565b600060208201905081810360008301526109f08184610961565b905092915050565b60038110610a0557600080fd5b50565b600081359050610a17816109f8565b92915050565b60008060008060808587031215610a3757610a366106fc565b5b600085013567ffffffffffffffff811115610a5557610a54610701565b5b610a618782880161081e565b9450506020610a7287828801610a08565b935050604085013567ffffffffffffffff811115610a9357610a92610701565b5b610a9f8782880161081e565b925050606085013567ffffffffffffffff811115610ac057610abf610701565b5b610acc8782880161081e565b91505092959194509250565b7f4e487b7100000000000000000000000000000000000000000000000000000000600052602160045260246000fd5b60038110610b1857610b17610ad8565b5b50565b6000819050610b2982610b07565b919050565b6000610b3982610b1b565b9050919050565b610b4981610b2e565b82525050565b600082825260208201905092915050565b6000610b6b826108c1565b610b758185610b4f565b9350610b858185602086016108dd565b610b8e81610710565b840191505092915050565b6000608082019050610bae6000830187610b40565b8181036020830152610bc08186610b60565b90508181036040830152610bd48185610b60565b9050610be360608301846106c8565b95945050505050565b60008060408385031215610c0357610c026106fc565b5b600083013567ffffffffffffffff811115610c2157610c20610701565b5b610c2d8582860161081e565b925050602083013567ffffffffffffffff811115610c4e57610c4d610701565b5b610c5a8582860161081e565b9150509250929050565b600081905092915050565b6000610c7a826108c1565b610c848185610c64565b9350610c948185602086016108dd565b80840191505092915050565b6000610cac8284610c6f565b915081905092915050565b7f526576696577206d75737420626520616464656420746f20616e20657869737460008201527f656e7420706c6163650000000000000000000000000000000000000000000000602082015250565b6000610d13602983610b4f565b9150610d1e82610cb7565b604082019050919050565b60006020820190508181036000830152610d4281610d06565b9050919050565b7f4e487b7100000000000000000000000000000000000000000000000000000000600052602260045260246000fd5b60006002820490506001821680610d9057607f821691505b602082108103610da357610da2610d49565b5b50919050565b7f4e487b7100000000000000000000000000000000000000000000000000000000600052601160045260246000fd5b6000610de3826106be565b9150610dee836106be565b9250828201905080821115610e0657610e05610da9565b5b92915050565b60008190508160005260206000209050919050565b60006020601f8301049050919050565b600082821b905092915050565b600060088302610e6e7fffffffffffffffffffffffffffffffffffffffffffffffffffffffffffffffff82610e31565b610e788683610e31565b95508019841693508086168417925050509392505050565b6000819050919050565b6000610eb5610eb0610eab846106be565b610e90565b6106be565b9050919050565b6000819050919050565b610ecf83610e9a565b610ee3610edb82610ebc565b848454610e3e565b825550505050565b600090565b610ef8610eeb565b610f03818484610ec6565b505050565b5b81811015610f2757610f1c600082610ef0565b600181019050610f09565b5050565b601f821115610f6c57610f3d81610e0c565b610f4684610e21565b81016020851015610f55578190505b610f69610f6185610e21565b830182610f08565b50505b505050565b600082821c905092915050565b6000610f8f60001984600802610f71565b1980831691505092915050565b6000610fa88383610f7e565b9150826002028217905092915050565b610fc1826108c1565b67ffffffffffffffff811115610fda57610fd9610721565b5b610fe48254610d78565b610fef828285610f2b565b600060209050601f8311600181146110225760008415611010578287015190505b61101a8582610f9c565b865550611082565b601f19841661103086610e0c565b60005b8281101561105857848901518255600182019150602085019450602081019050611033565b868310156110755784890151611071601f891682610f7e565b8355505b6001600288020188555050505b50505050505056fea264697066735822122016bb22bc28fb540d5c56b0d9a9dabe13c12b5761268c54505b796f4095a5dea564736f6c63430008110033",
  "devdoc": {
    "kind": "dev",
    "methods": {},
    "version": 1
  },
  "userdoc": {
    "kind": "user",
    "methods": {},
    "version": 1
  },
  "storageLayout": {
    "storage": [
      {
        "astId": 4,
        "contract": "contracts/Decentraveller.sol:Decentraveller",
        "label": "lastPlaceId",
        "offset": 0,
        "slot": "0",
        "type": "t_uint256"
      },
      {
        "astId": 26,
        "contract": "contracts/Decentraveller.sol:Decentraveller",
        "label": "places",
        "offset": 0,
        "slot": "1",
        "type": "t_mapping(t_string_memory_ptr,t_struct(Place)21_storage)"
      }
    ],
    "types": {
      "t_array(t_string_storage)dyn_storage": {
        "base": "t_string_storage",
        "encoding": "dynamic_array",
        "label": "string[]",
        "numberOfBytes": "32"
      },
      "t_enum(TourismField)8": {
        "encoding": "inplace",
        "label": "enum Decentraveller.TourismField",
        "numberOfBytes": "1"
      },
      "t_mapping(t_string_memory_ptr,t_struct(Place)21_storage)": {
        "encoding": "mapping",
        "key": "t_string_memory_ptr",
        "label": "mapping(string => struct Decentraveller.Place)",
        "numberOfBytes": "32",
        "value": "t_struct(Place)21_storage"
      },
      "t_string_memory_ptr": {
        "encoding": "bytes",
        "label": "string",
        "numberOfBytes": "32"
      },
      "t_string_storage": {
        "encoding": "bytes",
        "label": "string",
        "numberOfBytes": "32"
      },
      "t_struct(Place)21_storage": {
        "encoding": "inplace",
        "label": "struct Decentraveller.Place",
        "members": [
          {
            "astId": 11,
            "contract": "contracts/Decentraveller.sol:Decentraveller",
            "label": "TourismField",
            "offset": 0,
            "slot": "0",
            "type": "t_enum(TourismField)8"
          },
          {
            "astId": 13,
            "contract": "contracts/Decentraveller.sol:Decentraveller",
            "label": "latitude",
            "offset": 0,
            "slot": "1",
            "type": "t_string_storage"
          },
          {
            "astId": 15,
            "contract": "contracts/Decentraveller.sol:Decentraveller",
            "label": "longitude",
            "offset": 0,
            "slot": "2",
            "type": "t_string_storage"
          },
          {
            "astId": 17,
            "contract": "contracts/Decentraveller.sol:Decentraveller",
            "label": "placeId",
            "offset": 0,
            "slot": "3",
            "type": "t_uint256"
          },
          {
            "astId": 20,
            "contract": "contracts/Decentraveller.sol:Decentraveller",
            "label": "reviews",
            "offset": 0,
            "slot": "4",
            "type": "t_array(t_string_storage)dyn_storage"
          }
        ],
        "numberOfBytes": "160"
      },
      "t_uint256": {
        "encoding": "inplace",
        "label": "uint256",
        "numberOfBytes": "32"
      }
    }
  }
}