{
  "address": "0x5FbDB2315678afecb367f032d93F642f64180aa3",
  "abi": [
    {
      "anonymous": false,
      "inputs": [
        {
          "indexed": false,
          "internalType": "uint8",
          "name": "version",
          "type": "uint8"
        }
      ],
      "name": "Initialized",
      "type": "event"
    },
    {
      "inputs": [
        {
          "internalType": "string",
          "name": "_review",
          "type": "string"
        }
      ],
      "name": "addReview",
      "outputs": [],
      "stateMutability": "nonpayable",
      "type": "function"
    },
    {
      "inputs": [],
      "name": "getReviews",
      "outputs": [
        {
          "internalType": "string[]",
          "name": "",
          "type": "string[]"
        }
      ],
      "stateMutability": "view",
      "type": "function"
    },
    {
      "inputs": [
        {
          "internalType": "uint256",
          "name": "_placeId",
          "type": "uint256"
        },
        {
          "internalType": "string",
          "name": "_name",
          "type": "string"
        },
        {
          "internalType": "string",
          "name": "_latitude",
          "type": "string"
        },
        {
          "internalType": "string",
          "name": "_longitude",
          "type": "string"
        },
        {
          "internalType": "string",
          "name": "_tourismField",
          "type": "string"
        },
        {
          "internalType": "address",
          "name": "_placeCreator",
          "type": "address"
        }
      ],
      "name": "initialize",
      "outputs": [],
      "stateMutability": "nonpayable",
      "type": "function"
    },
    {
      "inputs": [],
      "name": "latitude",
      "outputs": [
        {
          "internalType": "string",
          "name": "",
          "type": "string"
        }
      ],
      "stateMutability": "view",
      "type": "function"
    },
    {
      "inputs": [],
      "name": "longitude",
      "outputs": [
        {
          "internalType": "string",
          "name": "",
          "type": "string"
        }
      ],
      "stateMutability": "view",
      "type": "function"
    },
    {
      "inputs": [],
      "name": "name",
      "outputs": [
        {
          "internalType": "string",
          "name": "",
          "type": "string"
        }
      ],
      "stateMutability": "view",
      "type": "function"
    },
    {
      "inputs": [],
      "name": "placeCreator",
      "outputs": [
        {
          "internalType": "address",
          "name": "",
          "type": "address"
        }
      ],
      "stateMutability": "view",
      "type": "function"
    },
    {
      "inputs": [],
      "name": "placeId",
      "outputs": [
        {
          "internalType": "uint256",
          "name": "",
          "type": "uint256"
        }
      ],
      "stateMutability": "view",
      "type": "function"
    },
    {
      "inputs": [
        {
          "internalType": "uint256",
          "name": "",
          "type": "uint256"
        }
      ],
      "name": "reviews",
      "outputs": [
        {
          "internalType": "string",
          "name": "",
          "type": "string"
        }
      ],
      "stateMutability": "view",
      "type": "function"
    },
    {
      "inputs": [],
      "name": "tourismField",
      "outputs": [
        {
          "internalType": "string",
          "name": "",
          "type": "string"
        }
      ],
      "stateMutability": "view",
      "type": "function"
    }
  ],
  "transactionHash": "0x548e49bf717a909c8e0f75e01d8fd4179b2d34b7b1c50d69346fc293e5438816",
  "args": [],
  "numDeployments": 1,
  "solcInputHash": "ffcabc822093bfb023c8190b8c16e976",
  "bytecode": "0x608060405234801561001057600080fd5b50611172806100206000396000f3fe608060405234801561001057600080fd5b506004361061009e5760003560e01c8063589af69c11610066578063589af69c146101375780639ddc444c14610155578063aa4e0bc014610173578063ca6621711461018f578063e83ddcea146101ad5761009e565b806306fdde03146100a35780631b1e1324146100c157806348db8fa9146100df5780634fd7d76a146100fb578063553a48bf14610119575b600080fd5b6100ab6101dd565b6040516100b89190610875565b60405180910390f35b6100c961026b565b6040516100d691906109a3565b60405180910390f35b6100f960048036038101906100f49190610b0e565b610344565b005b61010361037c565b6040516101109190610875565b60405180910390f35b61012161040a565b60405161012e9190610b98565b60405180910390f35b61013f610430565b60405161014c9190610875565b60405180910390f35b61015d6104be565b60405161016a9190610bcc565b60405180910390f35b61018d60048036038101906101889190610c3f565b6104c4565b005b610197610688565b6040516101a49190610875565b60405180910390f35b6101c760048036038101906101c29190610d3c565b610716565b6040516101d49190610875565b60405180910390f35b600280546101ea90610d98565b80601f016020809104026020016040519081016040528092919081815260200182805461021690610d98565b80156102635780601f1061023857610100808354040283529160200191610263565b820191906000526020600020905b81548152906001019060200180831161024657829003601f168201915b505050505081565b60606007805480602002602001604051908101604052809291908181526020016000905b8282101561033b5783829060005260206000200180546102ae90610d98565b80601f01602080910402602001604051908101604052809291908181526020018280546102da90610d98565b80156103275780601f106102fc57610100808354040283529160200191610327565b820191906000526020600020905b81548152906001019060200180831161030a57829003601f168201915b50505050508152602001906001019061028f565b50505050905090565b6007819080600181540180825580915050600190039060005260206000200160009091909190915090816103789190610f75565b5050565b6003805461038990610d98565b80601f01602080910402602001604051908101604052809291908181526020018280546103b590610d98565b80156104025780601f106103d757610100808354040283529160200191610402565b820191906000526020600020905b8154815290600101906020018083116103e557829003601f168201915b505050505081565b600660009054906101000a900473ffffffffffffffffffffffffffffffffffffffff1681565b6004805461043d90610d98565b80601f016020809104026020016040519081016040528092919081815260200182805461046990610d98565b80156104b65780601f1061048b576101008083540402835291602001916104b6565b820191906000526020600020905b81548152906001019060200180831161049957829003601f168201915b505050505081565b60015481565b60008060019054906101000a900460ff161590508080156104f55750600160008054906101000a900460ff1660ff16105b806105225750610504306107c2565b1580156105215750600160008054906101000a900460ff1660ff16145b5b610561576040517f08c379a0000000000000000000000000000000000000000000000000000000008152600401610558906110b9565b60405180910390fd5b60016000806101000a81548160ff021916908360ff160217905550801561059e576001600060016101000a81548160ff0219169083151502179055505b8660018190555085600290816105b49190610f75565b5084600390816105c49190610f75565b5083600490816105d49190610f75565b5082600590816105e49190610f75565b5081600660006101000a81548173ffffffffffffffffffffffffffffffffffffffff021916908373ffffffffffffffffffffffffffffffffffffffff160217905550801561067f5760008060016101000a81548160ff0219169083151502179055507f7f26b83ff96e1f2b6a682f133852f6798a09c465da95921460cefb384740249860016040516106769190611121565b60405180910390a15b50505050505050565b6005805461069590610d98565b80601f01602080910402602001604051908101604052809291908181526020018280546106c190610d98565b801561070e5780601f106106e35761010080835404028352916020019161070e565b820191906000526020600020905b8154815290600101906020018083116106f157829003601f168201915b505050505081565b6007818154811061072657600080fd5b90600052602060002001600091509050805461074190610d98565b80601f016020809104026020016040519081016040528092919081815260200182805461076d90610d98565b80156107ba5780601f1061078f576101008083540402835291602001916107ba565b820191906000526020600020905b81548152906001019060200180831161079d57829003601f168201915b505050505081565b6000808273ffffffffffffffffffffffffffffffffffffffff163b119050919050565b600081519050919050565b600082825260208201905092915050565b60005b8381101561081f578082015181840152602081019050610804565b60008484015250505050565b6000601f19601f8301169050919050565b6000610847826107e5565b61085181856107f0565b9350610861818560208601610801565b61086a8161082b565b840191505092915050565b6000602082019050818103600083015261088f818461083c565b905092915050565b600081519050919050565b600082825260208201905092915050565b6000819050602082019050919050565b600082825260208201905092915050565b60006108df826107e5565b6108e981856108c3565b93506108f9818560208601610801565b6109028161082b565b840191505092915050565b600061091983836108d4565b905092915050565b6000602082019050919050565b600061093982610897565b61094381856108a2565b935083602082028501610955856108b3565b8060005b858110156109915784840389528151610972858261090d565b945061097d83610921565b925060208a01995050600181019050610959565b50829750879550505050505092915050565b600060208201905081810360008301526109bd818461092e565b905092915050565b6000604051905090565b600080fd5b600080fd5b600080fd5b600080fd5b7f4e487b7100000000000000000000000000000000000000000000000000000000600052604160045260246000fd5b610a1b8261082b565b810181811067ffffffffffffffff82111715610a3a57610a396109e3565b5b80604052505050565b6000610a4d6109c5565b9050610a598282610a12565b919050565b600067ffffffffffffffff821115610a7957610a786109e3565b5b610a828261082b565b9050602081019050919050565b82818337600083830152505050565b6000610ab1610aac84610a5e565b610a43565b905082815260208101848484011115610acd57610acc6109de565b5b610ad8848285610a8f565b509392505050565b600082601f830112610af557610af46109d9565b5b8135610b05848260208601610a9e565b91505092915050565b600060208284031215610b2457610b236109cf565b5b600082013567ffffffffffffffff811115610b4257610b416109d4565b5b610b4e84828501610ae0565b91505092915050565b600073ffffffffffffffffffffffffffffffffffffffff82169050919050565b6000610b8282610b57565b9050919050565b610b9281610b77565b82525050565b6000602082019050610bad6000830184610b89565b92915050565b6000819050919050565b610bc681610bb3565b82525050565b6000602082019050610be16000830184610bbd565b92915050565b610bf081610bb3565b8114610bfb57600080fd5b50565b600081359050610c0d81610be7565b92915050565b610c1c81610b77565b8114610c2757600080fd5b50565b600081359050610c3981610c13565b92915050565b60008060008060008060c08789031215610c5c57610c5b6109cf565b5b6000610c6a89828a01610bfe565b965050602087013567ffffffffffffffff811115610c8b57610c8a6109d4565b5b610c9789828a01610ae0565b955050604087013567ffffffffffffffff811115610cb857610cb76109d4565b5b610cc489828a01610ae0565b945050606087013567ffffffffffffffff811115610ce557610ce46109d4565b5b610cf189828a01610ae0565b935050608087013567ffffffffffffffff811115610d1257610d116109d4565b5b610d1e89828a01610ae0565b92505060a0610d2f89828a01610c2a565b9150509295509295509295565b600060208284031215610d5257610d516109cf565b5b6000610d6084828501610bfe565b91505092915050565b7f4e487b7100000000000000000000000000000000000000000000000000000000600052602260045260246000fd5b60006002820490506001821680610db057607f821691505b602082108103610dc357610dc2610d69565b5b50919050565b60008190508160005260206000209050919050565b60006020601f8301049050919050565b600082821b905092915050565b600060088302610e2b7fffffffffffffffffffffffffffffffffffffffffffffffffffffffffffffffff82610dee565b610e358683610dee565b95508019841693508086168417925050509392505050565b6000819050919050565b6000610e72610e6d610e6884610bb3565b610e4d565b610bb3565b9050919050565b6000819050919050565b610e8c83610e57565b610ea0610e9882610e79565b848454610dfb565b825550505050565b600090565b610eb5610ea8565b610ec0818484610e83565b505050565b5b81811015610ee457610ed9600082610ead565b600181019050610ec6565b5050565b601f821115610f2957610efa81610dc9565b610f0384610dde565b81016020851015610f12578190505b610f26610f1e85610dde565b830182610ec5565b50505b505050565b600082821c905092915050565b6000610f4c60001984600802610f2e565b1980831691505092915050565b6000610f658383610f3b565b9150826002028217905092915050565b610f7e826107e5565b67ffffffffffffffff811115610f9757610f966109e3565b5b610fa18254610d98565b610fac828285610ee8565b600060209050601f831160018114610fdf5760008415610fcd578287015190505b610fd78582610f59565b86555061103f565b601f198416610fed86610dc9565b60005b8281101561101557848901518255600182019150602085019450602081019050610ff0565b86831015611032578489015161102e601f891682610f3b565b8355505b6001600288020188555050505b505050505050565b7f496e697469616c697a61626c653a20636f6e747261637420697320616c72656160008201527f647920696e697469616c697a6564000000000000000000000000000000000000602082015250565b60006110a3602e836107f0565b91506110ae82611047565b604082019050919050565b600060208201905081810360008301526110d281611096565b9050919050565b6000819050919050565b600060ff82169050919050565b600061110b611106611101846110d9565b610e4d565b6110e3565b9050919050565b61111b816110f0565b82525050565b60006020820190506111366000830184611112565b9291505056fea2646970667358221220e4dee2829fe534871e16029698985ab678e6b4f1007195aa9c79d84b5102c68964736f6c63430008110033",
  "devdoc": {
    "kind": "dev",
    "methods": {},
    "version": 1
  },
  "userdoc": {
    "kind": "user",
    "methods": {},
    "version": 1
  },
  "storageLayout": {
    "storage": [
      {
        "astId": 6,
        "contract": "contracts/DecentravellerPlace.sol:DecentravellerPlace",
        "label": "_initialized",
        "offset": 0,
        "slot": "0",
        "type": "t_uint8"
      },
      {
        "astId": 9,
        "contract": "contracts/DecentravellerPlace.sol:DecentravellerPlace",
        "label": "_initializing",
        "offset": 1,
        "slot": "0",
        "type": "t_bool"
      },
      {
        "astId": 659,
        "contract": "contracts/DecentravellerPlace.sol:DecentravellerPlace",
        "label": "placeId",
        "offset": 0,
        "slot": "1",
        "type": "t_uint256"
      },
      {
        "astId": 661,
        "contract": "contracts/DecentravellerPlace.sol:DecentravellerPlace",
        "label": "name",
        "offset": 0,
        "slot": "2",
        "type": "t_string_storage"
      },
      {
        "astId": 663,
        "contract": "contracts/DecentravellerPlace.sol:DecentravellerPlace",
        "label": "latitude",
        "offset": 0,
        "slot": "3",
        "type": "t_string_storage"
      },
      {
        "astId": 665,
        "contract": "contracts/DecentravellerPlace.sol:DecentravellerPlace",
        "label": "longitude",
        "offset": 0,
        "slot": "4",
        "type": "t_string_storage"
      },
      {
        "astId": 667,
        "contract": "contracts/DecentravellerPlace.sol:DecentravellerPlace",
        "label": "tourismField",
        "offset": 0,
        "slot": "5",
        "type": "t_string_storage"
      },
      {
        "astId": 669,
        "contract": "contracts/DecentravellerPlace.sol:DecentravellerPlace",
        "label": "placeCreator",
        "offset": 0,
        "slot": "6",
        "type": "t_address"
      },
      {
        "astId": 672,
        "contract": "contracts/DecentravellerPlace.sol:DecentravellerPlace",
        "label": "reviews",
        "offset": 0,
        "slot": "7",
        "type": "t_array(t_string_storage)dyn_storage"
      }
    ],
    "types": {
      "t_address": {
        "encoding": "inplace",
        "label": "address",
        "numberOfBytes": "20"
      },
      "t_array(t_string_storage)dyn_storage": {
        "base": "t_string_storage",
        "encoding": "dynamic_array",
        "label": "string[]",
        "numberOfBytes": "32"
      },
      "t_bool": {
        "encoding": "inplace",
        "label": "bool",
        "numberOfBytes": "1"
      },
      "t_string_storage": {
        "encoding": "bytes",
        "label": "string",
        "numberOfBytes": "32"
      },
      "t_uint256": {
        "encoding": "inplace",
        "label": "uint256",
        "numberOfBytes": "32"
      },
      "t_uint8": {
        "encoding": "inplace",
        "label": "uint8",
        "numberOfBytes": "1"
      }
    }
  }
}