{
  "address": "0x5FbDB2315678afecb367f032d93F642f64180aa3",
  "abi": [
    {
      "anonymous": false,
      "inputs": [
        {
          "indexed": false,
          "internalType": "uint8",
          "name": "version",
          "type": "uint8"
        }
      ],
      "name": "Initialized",
      "type": "event"
    },
    {
      "inputs": [
        {
          "internalType": "string",
          "name": "_review",
          "type": "string"
        }
      ],
      "name": "addReview",
      "outputs": [],
      "stateMutability": "nonpayable",
      "type": "function"
    },
    {
      "inputs": [],
      "name": "category",
      "outputs": [
        {
          "internalType": "enum DecentravellerPlaceCategory",
          "name": "",
          "type": "uint8"
        }
      ],
      "stateMutability": "view",
      "type": "function"
    },
    {
      "inputs": [],
      "name": "getReviews",
      "outputs": [
        {
          "internalType": "string[]",
          "name": "",
          "type": "string[]"
        }
      ],
      "stateMutability": "view",
      "type": "function"
    },
    {
      "inputs": [
        {
          "internalType": "uint256",
          "name": "_placeId",
          "type": "uint256"
        },
        {
          "internalType": "string",
          "name": "_name",
          "type": "string"
        },
        {
          "internalType": "string",
          "name": "_latitude",
          "type": "string"
        },
        {
          "internalType": "string",
          "name": "_longitude",
          "type": "string"
        },
        {
          "internalType": "string",
          "name": "_physicalAddress",
          "type": "string"
        },
        {
          "internalType": "enum DecentravellerPlaceCategory",
          "name": "_category",
          "type": "uint8"
        },
        {
          "internalType": "address",
          "name": "_placeCreator",
          "type": "address"
        }
      ],
      "name": "initialize",
      "outputs": [],
      "stateMutability": "nonpayable",
      "type": "function"
    },
    {
      "inputs": [],
      "name": "latitude",
      "outputs": [
        {
          "internalType": "string",
          "name": "",
          "type": "string"
        }
      ],
      "stateMutability": "view",
      "type": "function"
    },
    {
      "inputs": [],
      "name": "longitude",
      "outputs": [
        {
          "internalType": "string",
          "name": "",
          "type": "string"
        }
      ],
      "stateMutability": "view",
      "type": "function"
    },
    {
      "inputs": [],
      "name": "name",
      "outputs": [
        {
          "internalType": "string",
          "name": "",
          "type": "string"
        }
      ],
      "stateMutability": "view",
      "type": "function"
    },
    {
      "inputs": [],
      "name": "physicalAddress",
      "outputs": [
        {
          "internalType": "string",
          "name": "",
          "type": "string"
        }
      ],
      "stateMutability": "view",
      "type": "function"
    },
    {
      "inputs": [],
      "name": "placeCreator",
      "outputs": [
        {
          "internalType": "address",
          "name": "",
          "type": "address"
        }
      ],
      "stateMutability": "view",
      "type": "function"
    },
    {
      "inputs": [],
      "name": "placeId",
      "outputs": [
        {
          "internalType": "uint256",
          "name": "",
          "type": "uint256"
        }
      ],
      "stateMutability": "view",
      "type": "function"
    },
    {
      "inputs": [
        {
          "internalType": "uint256",
          "name": "",
          "type": "uint256"
        }
      ],
      "name": "reviews",
      "outputs": [
        {
          "internalType": "string",
          "name": "",
          "type": "string"
        }
      ],
      "stateMutability": "view",
      "type": "function"
    }
  ],
  "transactionHash": "0xb9803937e3baf4b49d3f4725526d621e32031a451bc082a451690090e2fe8298",
  "args": [],
  "numDeployments": 1,
  "solcInputHash": "b3aeab3c2ef0e9c6c105b66a769523b6",
  "bytecode": "0x608060405234801561001057600080fd5b506112a5806100206000396000f3fe608060405234801561001057600080fd5b50600436106100a95760003560e01c8063553a48bf11610071578063553a48bf14610142578063589af69c1461016057806383405d781461017e5780639ddc444c1461019a578063e83ddcea146101b8578063ef430aa6146101e8576100a9565b806306fdde03146100ae5780631b1e1324146100cc57806340868fff146100ea57806348db8fa9146101085780634fd7d76a14610124575b600080fd5b6100b6610206565b6040516100c391906108dc565b60405180910390f35b6100d4610294565b6040516100e19190610a0a565b60405180910390f35b6100f261036d565b6040516100ff91906108dc565b60405180910390f35b610122600480360381019061011d9190610b75565b6103fb565b005b61012c610433565b60405161013991906108dc565b60405180910390f35b61014a6104c1565b6040516101579190610bff565b60405180910390f35b6101686104e7565b60405161017591906108dc565b60405180910390f35b61019860048036038101906101939190610ca1565b610575565b005b6101a2610764565b6040516101af9190610dc2565b60405180910390f35b6101d260048036038101906101cd9190610ddd565b61076a565b6040516101df91906108dc565b60405180910390f35b6101f0610816565b6040516101fd9190610e81565b60405180910390f35b6002805461021390610ecb565b80601f016020809104026020016040519081016040528092919081815260200182805461023f90610ecb565b801561028c5780601f106102615761010080835404028352916020019161028c565b820191906000526020600020905b81548152906001019060200180831161026f57829003601f168201915b505050505081565b60606007805480602002602001604051908101604052809291908181526020016000905b828210156103645783829060005260206000200180546102d790610ecb565b80601f016020809104026020016040519081016040528092919081815260200182805461030390610ecb565b80156103505780601f1061032557610100808354040283529160200191610350565b820191906000526020600020905b81548152906001019060200180831161033357829003601f168201915b5050505050815260200190600101906102b8565b50505050905090565b6005805461037a90610ecb565b80601f01602080910402602001604051908101604052809291908181526020018280546103a690610ecb565b80156103f35780601f106103c8576101008083540402835291602001916103f3565b820191906000526020600020905b8154815290600101906020018083116103d657829003601f168201915b505050505081565b60078190806001815401808255809150506001900390600052602060002001600090919091909150908161042f91906110a8565b5050565b6003805461044090610ecb565b80601f016020809104026020016040519081016040528092919081815260200182805461046c90610ecb565b80156104b95780601f1061048e576101008083540402835291602001916104b9565b820191906000526020600020905b81548152906001019060200180831161049c57829003601f168201915b505050505081565b600660019054906101000a900473ffffffffffffffffffffffffffffffffffffffff1681565b600480546104f490610ecb565b80601f016020809104026020016040519081016040528092919081815260200182805461052090610ecb565b801561056d5780601f106105425761010080835404028352916020019161056d565b820191906000526020600020905b81548152906001019060200180831161055057829003601f168201915b505050505081565b60008060019054906101000a900460ff161590508080156105a65750600160008054906101000a900460ff1660ff16105b806105d357506105b530610829565b1580156105d25750600160008054906101000a900460ff1660ff16145b5b610612576040517f08c379a0000000000000000000000000000000000000000000000000000000008152600401610609906111ec565b60405180910390fd5b60016000806101000a81548160ff021916908360ff160217905550801561064f576001600060016101000a81548160ff0219169083151502179055505b87600181905550866002908161066591906110a8565b50856003908161067591906110a8565b50846004908161068591906110a8565b50836005908161069591906110a8565b5082600660006101000a81548160ff021916908360028111156106bb576106ba610e0a565b5b021790555081600660016101000a81548173ffffffffffffffffffffffffffffffffffffffff021916908373ffffffffffffffffffffffffffffffffffffffff160217905550801561075a5760008060016101000a81548160ff0219169083151502179055507f7f26b83ff96e1f2b6a682f133852f6798a09c465da95921460cefb384740249860016040516107519190611254565b60405180910390a15b5050505050505050565b60015481565b6007818154811061077a57600080fd5b90600052602060002001600091509050805461079590610ecb565b80601f01602080910402602001604051908101604052809291908181526020018280546107c190610ecb565b801561080e5780601f106107e35761010080835404028352916020019161080e565b820191906000526020600020905b8154815290600101906020018083116107f157829003601f168201915b505050505081565b600660009054906101000a900460ff1681565b6000808273ffffffffffffffffffffffffffffffffffffffff163b119050919050565b600081519050919050565b600082825260208201905092915050565b60005b8381101561088657808201518184015260208101905061086b565b60008484015250505050565b6000601f19601f8301169050919050565b60006108ae8261084c565b6108b88185610857565b93506108c8818560208601610868565b6108d181610892565b840191505092915050565b600060208201905081810360008301526108f681846108a3565b905092915050565b600081519050919050565b600082825260208201905092915050565b6000819050602082019050919050565b600082825260208201905092915050565b60006109468261084c565b610950818561092a565b9350610960818560208601610868565b61096981610892565b840191505092915050565b6000610980838361093b565b905092915050565b6000602082019050919050565b60006109a0826108fe565b6109aa8185610909565b9350836020820285016109bc8561091a565b8060005b858110156109f857848403895281516109d98582610974565b94506109e483610988565b925060208a019950506001810190506109c0565b50829750879550505050505092915050565b60006020820190508181036000830152610a248184610995565b905092915050565b6000604051905090565b600080fd5b600080fd5b600080fd5b600080fd5b7f4e487b7100000000000000000000000000000000000000000000000000000000600052604160045260246000fd5b610a8282610892565b810181811067ffffffffffffffff82111715610aa157610aa0610a4a565b5b80604052505050565b6000610ab4610a2c565b9050610ac08282610a79565b919050565b600067ffffffffffffffff821115610ae057610adf610a4a565b5b610ae982610892565b9050602081019050919050565b82818337600083830152505050565b6000610b18610b1384610ac5565b610aaa565b905082815260208101848484011115610b3457610b33610a45565b5b610b3f848285610af6565b509392505050565b600082601f830112610b5c57610b5b610a40565b5b8135610b6c848260208601610b05565b91505092915050565b600060208284031215610b8b57610b8a610a36565b5b600082013567ffffffffffffffff811115610ba957610ba8610a3b565b5b610bb584828501610b47565b91505092915050565b600073ffffffffffffffffffffffffffffffffffffffff82169050919050565b6000610be982610bbe565b9050919050565b610bf981610bde565b82525050565b6000602082019050610c146000830184610bf0565b92915050565b6000819050919050565b610c2d81610c1a565b8114610c3857600080fd5b50565b600081359050610c4a81610c24565b92915050565b60038110610c5d57600080fd5b50565b600081359050610c6f81610c50565b92915050565b610c7e81610bde565b8114610c8957600080fd5b50565b600081359050610c9b81610c75565b92915050565b600080600080600080600060e0888a031215610cc057610cbf610a36565b5b6000610cce8a828b01610c3b565b975050602088013567ffffffffffffffff811115610cef57610cee610a3b565b5b610cfb8a828b01610b47565b965050604088013567ffffffffffffffff811115610d1c57610d1b610a3b565b5b610d288a828b01610b47565b955050606088013567ffffffffffffffff811115610d4957610d48610a3b565b5b610d558a828b01610b47565b945050608088013567ffffffffffffffff811115610d7657610d75610a3b565b5b610d828a828b01610b47565b93505060a0610d938a828b01610c60565b92505060c0610da48a828b01610c8c565b91505092959891949750929550565b610dbc81610c1a565b82525050565b6000602082019050610dd76000830184610db3565b92915050565b600060208284031215610df357610df2610a36565b5b6000610e0184828501610c3b565b91505092915050565b7f4e487b7100000000000000000000000000000000000000000000000000000000600052602160045260246000fd5b60038110610e4a57610e49610e0a565b5b50565b6000819050610e5b82610e39565b919050565b6000610e6b82610e4d565b9050919050565b610e7b81610e60565b82525050565b6000602082019050610e966000830184610e72565b92915050565b7f4e487b7100000000000000000000000000000000000000000000000000000000600052602260045260246000fd5b60006002820490506001821680610ee357607f821691505b602082108103610ef657610ef5610e9c565b5b50919050565b60008190508160005260206000209050919050565b60006020601f8301049050919050565b600082821b905092915050565b600060088302610f5e7fffffffffffffffffffffffffffffffffffffffffffffffffffffffffffffffff82610f21565b610f688683610f21565b95508019841693508086168417925050509392505050565b6000819050919050565b6000610fa5610fa0610f9b84610c1a565b610f80565b610c1a565b9050919050565b6000819050919050565b610fbf83610f8a565b610fd3610fcb82610fac565b848454610f2e565b825550505050565b600090565b610fe8610fdb565b610ff3818484610fb6565b505050565b5b818110156110175761100c600082610fe0565b600181019050610ff9565b5050565b601f82111561105c5761102d81610efc565b61103684610f11565b81016020851015611045578190505b61105961105185610f11565b830182610ff8565b50505b505050565b600082821c905092915050565b600061107f60001984600802611061565b1980831691505092915050565b6000611098838361106e565b9150826002028217905092915050565b6110b18261084c565b67ffffffffffffffff8111156110ca576110c9610a4a565b5b6110d48254610ecb565b6110df82828561101b565b600060209050601f8311600181146111125760008415611100578287015190505b61110a858261108c565b865550611172565b601f19841661112086610efc565b60005b8281101561114857848901518255600182019150602085019450602081019050611123565b868310156111655784890151611161601f89168261106e565b8355505b6001600288020188555050505b505050505050565b7f496e697469616c697a61626c653a20636f6e747261637420697320616c72656160008201527f647920696e697469616c697a6564000000000000000000000000000000000000602082015250565b60006111d6602e83610857565b91506111e18261117a565b604082019050919050565b60006020820190508181036000830152611205816111c9565b9050919050565b6000819050919050565b600060ff82169050919050565b600061123e6112396112348461120c565b610f80565b611216565b9050919050565b61124e81611223565b82525050565b60006020820190506112696000830184611245565b9291505056fea26469706673582212204cab79147441d6759ab0c178bb1b549fd59718be09f933da40d0a0b2a237758164736f6c63430008110033",
  "devdoc": {
    "kind": "dev",
    "methods": {},
    "version": 1
  },
  "userdoc": {
    "kind": "user",
    "methods": {},
    "version": 1
  },
  "storageLayout": {
    "storage": [
      {
        "astId": 6,
        "contract": "contracts/DecentravellerPlace.sol:DecentravellerPlace",
        "label": "_initialized",
        "offset": 0,
        "slot": "0",
        "type": "t_uint8"
      },
      {
        "astId": 9,
        "contract": "contracts/DecentravellerPlace.sol:DecentravellerPlace",
        "label": "_initializing",
        "offset": 1,
        "slot": "0",
        "type": "t_bool"
      },
      {
        "astId": 665,
        "contract": "contracts/DecentravellerPlace.sol:DecentravellerPlace",
        "label": "placeId",
        "offset": 0,
        "slot": "1",
        "type": "t_uint256"
      },
      {
        "astId": 667,
        "contract": "contracts/DecentravellerPlace.sol:DecentravellerPlace",
        "label": "name",
        "offset": 0,
        "slot": "2",
        "type": "t_string_storage"
      },
      {
        "astId": 669,
        "contract": "contracts/DecentravellerPlace.sol:DecentravellerPlace",
        "label": "latitude",
        "offset": 0,
        "slot": "3",
        "type": "t_string_storage"
      },
      {
        "astId": 671,
        "contract": "contracts/DecentravellerPlace.sol:DecentravellerPlace",
        "label": "longitude",
        "offset": 0,
        "slot": "4",
        "type": "t_string_storage"
      },
      {
        "astId": 673,
        "contract": "contracts/DecentravellerPlace.sol:DecentravellerPlace",
        "label": "physicalAddress",
        "offset": 0,
        "slot": "5",
        "type": "t_string_storage"
      },
      {
        "astId": 676,
        "contract": "contracts/DecentravellerPlace.sol:DecentravellerPlace",
        "label": "category",
        "offset": 0,
        "slot": "6",
        "type": "t_enum(DecentravellerPlaceCategory)758"
      },
      {
        "astId": 678,
        "contract": "contracts/DecentravellerPlace.sol:DecentravellerPlace",
        "label": "placeCreator",
        "offset": 1,
        "slot": "6",
        "type": "t_address"
      },
      {
        "astId": 681,
        "contract": "contracts/DecentravellerPlace.sol:DecentravellerPlace",
        "label": "reviews",
        "offset": 0,
        "slot": "7",
        "type": "t_array(t_string_storage)dyn_storage"
      }
    ],
    "types": {
      "t_address": {
        "encoding": "inplace",
        "label": "address",
        "numberOfBytes": "20"
      },
      "t_array(t_string_storage)dyn_storage": {
        "base": "t_string_storage",
        "encoding": "dynamic_array",
        "label": "string[]",
        "numberOfBytes": "32"
      },
      "t_bool": {
        "encoding": "inplace",
        "label": "bool",
        "numberOfBytes": "1"
      },
      "t_enum(DecentravellerPlaceCategory)758": {
        "encoding": "inplace",
        "label": "enum DecentravellerPlaceCategory",
        "numberOfBytes": "1"
      },
      "t_string_storage": {
        "encoding": "bytes",
        "label": "string",
        "numberOfBytes": "32"
      },
      "t_uint256": {
        "encoding": "inplace",
        "label": "uint256",
        "numberOfBytes": "32"
      },
      "t_uint8": {
        "encoding": "inplace",
        "label": "uint8",
        "numberOfBytes": "1"
      }
    }
  }
}