{
  "address": "0x9fE46736679d2D9a65F0992F2272dE9f3c7fa6e0",
  "abi": [
    {
      "inputs": [
        {
          "internalType": "address",
          "name": "_placesFactory",
          "type": "address"
        }
      ],
      "stateMutability": "nonpayable",
      "type": "constructor"
    },
    {
      "inputs": [
        {
          "internalType": "string",
          "name": "_name",
          "type": "string"
        },
        {
          "internalType": "string",
          "name": "_latitude",
          "type": "string"
        },
        {
          "internalType": "string",
          "name": "_longitude",
          "type": "string"
        },
        {
          "internalType": "string",
          "name": "_physicalAddress",
          "type": "string"
        },
        {
          "internalType": "enum DecentravellerPlaceCategory",
          "name": "category",
          "type": "uint8"
        }
      ],
      "name": "addPlace",
      "outputs": [],
      "stateMutability": "nonpayable",
      "type": "function"
    },
    {
      "inputs": [
        {
          "internalType": "uint256",
          "name": "_placeId",
          "type": "uint256"
        },
        {
          "internalType": "string",
          "name": "_review",
          "type": "string"
        }
      ],
      "name": "addReview",
      "outputs": [],
      "stateMutability": "nonpayable",
      "type": "function"
    },
    {
      "inputs": [
        {
          "internalType": "uint256",
          "name": "_placeId",
          "type": "uint256"
        }
      ],
      "name": "getReviews",
      "outputs": [
        {
          "internalType": "string[]",
          "name": "",
          "type": "string[]"
        }
      ],
      "stateMutability": "view",
      "type": "function"
    },
    {
      "inputs": [],
      "name": "lastPlaceId",
      "outputs": [
        {
          "internalType": "uint256",
          "name": "",
          "type": "uint256"
        }
      ],
      "stateMutability": "view",
      "type": "function"
    },
    {
      "inputs": [
        {
          "internalType": "uint256",
          "name": "",
          "type": "uint256"
        }
      ],
      "name": "placesAddressByPlaceId",
      "outputs": [
        {
          "internalType": "address",
          "name": "",
          "type": "address"
        }
      ],
      "stateMutability": "view",
      "type": "function"
    }
  ],
  "transactionHash": "0x801a13a8641b2cbf8ddaefacd89038f6d7d7928ac0c4bb891ab639c381a499c0",
  "args": [
    "0xe7f1725E7734CE288F8367e1Bb143E90bb3F0512"
  ],
  "numDeployments": 1,
  "solcInputHash": "b3aeab3c2ef0e9c6c105b66a769523b6",
  "bytecode": "0x608060405234801561001057600080fd5b506040516200103038038062001030833981810160405281019061003491906100e5565b80600160006101000a81548173ffffffffffffffffffffffffffffffffffffffff021916908373ffffffffffffffffffffffffffffffffffffffff1602179055506000808190555050610112565b600080fd5b600073ffffffffffffffffffffffffffffffffffffffff82169050919050565b60006100b282610087565b9050919050565b6100c2816100a7565b81146100cd57600080fd5b50565b6000815190506100df816100b9565b92915050565b6000602082840312156100fb576100fa610082565b5b6000610109848285016100d0565b91505092915050565b610f0e80620001226000396000f3fe608060405234801561001057600080fd5b50600436106100575760003560e01c8063283d7a9c1461005c5780635bb0c5d61461007a5780639d4a225514610096578063b9d8af89146100c6578063df3d5fd6146100e2575b600080fd5b610064610112565b6040516100719190610518565b60405180910390f35b610094600480360381019061008f91906106b9565b610118565b005b6100b060048036038101906100ab9190610715565b61025c565b6040516100bd9190610883565b60405180910390f35b6100e060048036038101906100db91906108ca565b6103ae565b005b6100fc60048036038101906100f79190610715565b6104cc565b60405161010991906109f6565b60405180910390f35b60005481565b600073ffffffffffffffffffffffffffffffffffffffff166002600084815260200190815260200160002060009054906101000a900473ffffffffffffffffffffffffffffffffffffffff1673ffffffffffffffffffffffffffffffffffffffff16036101ba576040517f08c379a00000000000000000000000000000000000000000000000000000000081526004016101b190610a94565b60405180910390fd5b6002600083815260200190815260200160002060009054906101000a900473ffffffffffffffffffffffffffffffffffffffff1673ffffffffffffffffffffffffffffffffffffffff166348db8fa9826040518263ffffffff1660e01b81526004016102269190610aed565b600060405180830381600087803b15801561024057600080fd5b505af1158015610254573d6000803e3d6000fd5b505050505050565b6060600073ffffffffffffffffffffffffffffffffffffffff166002600084815260200190815260200160002060009054906101000a900473ffffffffffffffffffffffffffffffffffffffff1673ffffffffffffffffffffffffffffffffffffffff1603610300576040517f08c379a00000000000000000000000000000000000000000000000000000000081526004016102f790610b5b565b60405180910390fd5b6002600083815260200190815260200160002060009054906101000a900473ffffffffffffffffffffffffffffffffffffffff1673ffffffffffffffffffffffffffffffffffffffff16631b1e13246040518163ffffffff1660e01b8152600401600060405180830381865afa15801561037e573d6000803e3d6000fd5b505050506040513d6000823e3d601f19601f820116820180604052508101906103a79190610cd1565b9050919050565b60016000808282546103c09190610d49565b92505081905550600160009054906101000a900473ffffffffffffffffffffffffffffffffffffffff1673ffffffffffffffffffffffffffffffffffffffff166355ffbacc6000548787878787336040518863ffffffff1660e01b81526004016104309796959493929190610df4565b6020604051808303816000875af115801561044f573d6000803e3d6000fd5b505050506040513d601f19601f820116820180604052508101906104739190610eab565b600260008054815260200190815260200160002060006101000a81548173ffffffffffffffffffffffffffffffffffffffff021916908373ffffffffffffffffffffffffffffffffffffffff1602179055505050505050565b60026020528060005260406000206000915054906101000a900473ffffffffffffffffffffffffffffffffffffffff1681565b6000819050919050565b610512816104ff565b82525050565b600060208201905061052d6000830184610509565b92915050565b6000604051905090565b600080fd5b600080fd5b610550816104ff565b811461055b57600080fd5b50565b60008135905061056d81610547565b92915050565b600080fd5b600080fd5b6000601f19601f8301169050919050565b7f4e487b7100000000000000000000000000000000000000000000000000000000600052604160045260246000fd5b6105c68261057d565b810181811067ffffffffffffffff821117156105e5576105e461058e565b5b80604052505050565b60006105f8610533565b905061060482826105bd565b919050565b600067ffffffffffffffff8211156106245761062361058e565b5b61062d8261057d565b9050602081019050919050565b82818337600083830152505050565b600061065c61065784610609565b6105ee565b90508281526020810184848401111561067857610677610578565b5b61068384828561063a565b509392505050565b600082601f8301126106a05761069f610573565b5b81356106b0848260208601610649565b91505092915050565b600080604083850312156106d0576106cf61053d565b5b60006106de8582860161055e565b925050602083013567ffffffffffffffff8111156106ff576106fe610542565b5b61070b8582860161068b565b9150509250929050565b60006020828403121561072b5761072a61053d565b5b60006107398482850161055e565b91505092915050565b600081519050919050565b600082825260208201905092915050565b6000819050602082019050919050565b600081519050919050565b600082825260208201905092915050565b60005b838110156107a857808201518184015260208101905061078d565b60008484015250505050565b60006107bf8261076e565b6107c98185610779565b93506107d981856020860161078a565b6107e28161057d565b840191505092915050565b60006107f983836107b4565b905092915050565b6000602082019050919050565b600061081982610742565b610823818561074d565b9350836020820285016108358561075e565b8060005b85811015610871578484038952815161085285826107ed565b945061085d83610801565b925060208a01995050600181019050610839565b50829750879550505050505092915050565b6000602082019050818103600083015261089d818461080e565b905092915050565b600381106108b257600080fd5b50565b6000813590506108c4816108a5565b92915050565b600080600080600060a086880312156108e6576108e561053d565b5b600086013567ffffffffffffffff81111561090457610903610542565b5b6109108882890161068b565b955050602086013567ffffffffffffffff81111561093157610930610542565b5b61093d8882890161068b565b945050604086013567ffffffffffffffff81111561095e5761095d610542565b5b61096a8882890161068b565b935050606086013567ffffffffffffffff81111561098b5761098a610542565b5b6109978882890161068b565b92505060806109a8888289016108b5565b9150509295509295909350565b600073ffffffffffffffffffffffffffffffffffffffff82169050919050565b60006109e0826109b5565b9050919050565b6109f0816109d5565b82525050565b6000602082019050610a0b60008301846109e7565b92915050565b600082825260208201905092915050565b7f526576696577206d75737420626520616464656420746f20616e20657869737460008201527f656e7420706c6163650000000000000000000000000000000000000000000000602082015250565b6000610a7e602983610a11565b9150610a8982610a22565b604082019050919050565b60006020820190508181036000830152610aad81610a71565b9050919050565b6000610abf8261076e565b610ac98185610a11565b9350610ad981856020860161078a565b610ae28161057d565b840191505092915050565b60006020820190508181036000830152610b078184610ab4565b905092915050565b7f506c61636520646f6573206e6f74206578697374000000000000000000000000600082015250565b6000610b45601483610a11565b9150610b5082610b0f565b602082019050919050565b60006020820190508181036000830152610b7481610b38565b9050919050565b600067ffffffffffffffff821115610b9657610b9561058e565b5b602082029050602081019050919050565b600080fd5b6000610bbf610bba84610609565b6105ee565b905082815260208101848484011115610bdb57610bda610578565b5b610be684828561078a565b509392505050565b600082601f830112610c0357610c02610573565b5b8151610c13848260208601610bac565b91505092915050565b6000610c2f610c2a84610b7b565b6105ee565b90508083825260208201905060208402830185811115610c5257610c51610ba7565b5b835b81811015610c9957805167ffffffffffffffff811115610c7757610c76610573565b5b808601610c848982610bee565b85526020850194505050602081019050610c54565b5050509392505050565b600082601f830112610cb857610cb7610573565b5b8151610cc8848260208601610c1c565b91505092915050565b600060208284031215610ce757610ce661053d565b5b600082015167ffffffffffffffff811115610d0557610d04610542565b5b610d1184828501610ca3565b91505092915050565b7f4e487b7100000000000000000000000000000000000000000000000000000000600052601160045260246000fd5b6000610d54826104ff565b9150610d5f836104ff565b9250828201905080821115610d7757610d76610d1a565b5b92915050565b7f4e487b7100000000000000000000000000000000000000000000000000000000600052602160045260246000fd5b60038110610dbd57610dbc610d7d565b5b50565b6000819050610dce82610dac565b919050565b6000610dde82610dc0565b9050919050565b610dee81610dd3565b82525050565b600060e082019050610e09600083018a610509565b8181036020830152610e1b8189610ab4565b90508181036040830152610e2f8188610ab4565b90508181036060830152610e438187610ab4565b90508181036080830152610e578186610ab4565b9050610e6660a0830185610de5565b610e7360c08301846109e7565b98975050505050505050565b610e88816109d5565b8114610e9357600080fd5b50565b600081519050610ea581610e7f565b92915050565b600060208284031215610ec157610ec061053d565b5b6000610ecf84828501610e96565b9150509291505056fea264697066735822122037aa7b9695c236427c5778b1bfd7f3e48e5455bd6a394d68098768515539d0d964736f6c63430008110033",
  "devdoc": {
    "kind": "dev",
    "methods": {},
    "version": 1
  },
  "userdoc": {
    "kind": "user",
    "methods": {},
    "version": 1
  },
  "storageLayout": {
    "storage": [
      {
        "astId": 539,
        "contract": "contracts/Decentraveller.sol:Decentraveller",
        "label": "lastPlaceId",
        "offset": 0,
        "slot": "0",
        "type": "t_uint256"
      },
      {
        "astId": 542,
        "contract": "contracts/Decentraveller.sol:Decentraveller",
        "label": "placeFactory",
        "offset": 0,
        "slot": "1",
        "type": "t_contract(DecentravellerPlaceCloneFactory)846"
      },
      {
        "astId": 562,
        "contract": "contracts/Decentraveller.sol:Decentraveller",
        "label": "placesAddressByPlaceId",
        "offset": 0,
        "slot": "2",
        "type": "t_mapping(t_uint256,t_address)"
      }
    ],
    "types": {
      "t_address": {
        "encoding": "inplace",
        "label": "address",
        "numberOfBytes": "20"
      },
      "t_contract(DecentravellerPlaceCloneFactory)846": {
        "encoding": "inplace",
        "label": "contract DecentravellerPlaceCloneFactory",
        "numberOfBytes": "20"
      },
      "t_mapping(t_uint256,t_address)": {
        "encoding": "mapping",
        "key": "t_uint256",
        "label": "mapping(uint256 => address)",
        "numberOfBytes": "32",
        "value": "t_address"
      },
      "t_uint256": {
        "encoding": "inplace",
        "label": "uint256",
        "numberOfBytes": "32"
      }
    }
  }
}