{
  "address": "0xe7f1725E7734CE288F8367e1Bb143E90bb3F0512",
  "abi": [
    {
      "inputs": [
        {
          "internalType": "address",
          "name": "_decentravellerPlaceImplementation",
          "type": "address"
        }
      ],
      "stateMutability": "nonpayable",
      "type": "constructor"
    },
    {
      "anonymous": false,
      "inputs": [
        {
          "indexed": true,
          "internalType": "address",
          "name": "placeCreator",
          "type": "address"
        },
        {
          "indexed": true,
          "internalType": "uint256",
          "name": "id",
          "type": "uint256"
        },
        {
          "indexed": false,
          "internalType": "string",
          "name": "placeName",
          "type": "string"
        },
        {
          "indexed": false,
          "internalType": "string",
          "name": "tourismField",
          "type": "string"
        },
        {
          "indexed": false,
          "internalType": "string",
          "name": "latitude",
          "type": "string"
        },
        {
          "indexed": false,
          "internalType": "string",
          "name": "longitude",
          "type": "string"
        }
      ],
      "name": "NewPlace",
      "type": "event"
    },
    {
      "inputs": [
        {
          "internalType": "uint256",
          "name": "_placeId",
          "type": "uint256"
        },
        {
          "internalType": "string",
          "name": "_name",
          "type": "string"
        },
        {
          "internalType": "string",
          "name": "_latitude",
          "type": "string"
        },
        {
          "internalType": "string",
          "name": "_longitude",
          "type": "string"
        },
        {
          "internalType": "string",
          "name": "_touristField",
          "type": "string"
        },
        {
          "internalType": "address",
          "name": "_placeCreator",
          "type": "address"
        }
      ],
      "name": "createNewPlace",
      "outputs": [
        {
          "internalType": "address",
          "name": "",
          "type": "address"
        }
      ],
      "stateMutability": "nonpayable",
      "type": "function"
    }
  ],
  "transactionHash": "0xe039dc45d7bc689dc6ac125858e93c349f96a9b164160f4435c123911828635e",
  "args": [
    "0x5FbDB2315678afecb367f032d93F642f64180aa3"
  ],
  "numDeployments": 1,
  "solcInputHash": "ffcabc822093bfb023c8190b8c16e976",
  "bytecode": "0x60a060405234801561001057600080fd5b50604051610873380380610873833981810160405281019061003291906100cf565b8073ffffffffffffffffffffffffffffffffffffffff1660808173ffffffffffffffffffffffffffffffffffffffff1681525050506100fc565b600080fd5b600073ffffffffffffffffffffffffffffffffffffffff82169050919050565b600061009c82610071565b9050919050565b6100ac81610091565b81146100b757600080fd5b50565b6000815190506100c9816100a3565b92915050565b6000602082840312156100e5576100e461006c565b5b60006100f3848285016100ba565b91505092915050565b60805161075d61011660003960006068015261075d6000f3fe608060405234801561001057600080fd5b506004361061002b5760003560e01c8063b93e63ec14610030575b600080fd5b61004a60048036038101906100459190610428565b610060565b6040516100579190610534565b60405180910390f35b60008061008c7f0000000000000000000000000000000000000000000000000000000000000000610166565b90508073ffffffffffffffffffffffffffffffffffffffff1663aa4e0bc08989898989896040518763ffffffff1660e01b81526004016100d1969594939291906105dd565b600060405180830381600087803b1580156100eb57600080fd5b505af11580156100ff573d6000803e3d6000fd5b50505050878373ffffffffffffffffffffffffffffffffffffffff167fb7bcac98462dd89293907187fe381cb9b3d0254986183f7ce7c598dd1e660db289878a8a604051610150949392919061065a565b60405180910390a3809150509695505050505050565b60006040517f3d602d80600a3d3981f3363d3d373d3d3d363d7300000000000000000000000081528260601b60148201527f5af43d82803e903d91602b57fd5bf3000000000000000000000000000000000060288201526037816000f0915050600073ffffffffffffffffffffffffffffffffffffffff168173ffffffffffffffffffffffffffffffffffffffff1603610235576040517f08c379a000000000000000000000000000000000000000000000000000000000815260040161022c90610707565b60405180910390fd5b919050565b6000604051905090565b600080fd5b600080fd5b6000819050919050565b6102618161024e565b811461026c57600080fd5b50565b60008135905061027e81610258565b92915050565b600080fd5b600080fd5b6000601f19601f8301169050919050565b7f4e487b7100000000000000000000000000000000000000000000000000000000600052604160045260246000fd5b6102d78261028e565b810181811067ffffffffffffffff821117156102f6576102f561029f565b5b80604052505050565b600061030961023a565b905061031582826102ce565b919050565b600067ffffffffffffffff8211156103355761033461029f565b5b61033e8261028e565b9050602081019050919050565b82818337600083830152505050565b600061036d6103688461031a565b6102ff565b90508281526020810184848401111561038957610388610289565b5b61039484828561034b565b509392505050565b600082601f8301126103b1576103b0610284565b5b81356103c184826020860161035a565b91505092915050565b600073ffffffffffffffffffffffffffffffffffffffff82169050919050565b60006103f5826103ca565b9050919050565b610405816103ea565b811461041057600080fd5b50565b600081359050610422816103fc565b92915050565b60008060008060008060c0878903121561044557610444610244565b5b600061045389828a0161026f565b965050602087013567ffffffffffffffff81111561047457610473610249565b5b61048089828a0161039c565b955050604087013567ffffffffffffffff8111156104a1576104a0610249565b5b6104ad89828a0161039c565b945050606087013567ffffffffffffffff8111156104ce576104cd610249565b5b6104da89828a0161039c565b935050608087013567ffffffffffffffff8111156104fb576104fa610249565b5b61050789828a0161039c565b92505060a061051889828a01610413565b9150509295509295509295565b61052e816103ea565b82525050565b60006020820190506105496000830184610525565b92915050565b6105588161024e565b82525050565b600081519050919050565b600082825260208201905092915050565b60005b8381101561059857808201518184015260208101905061057d565b60008484015250505050565b60006105af8261055e565b6105b98185610569565b93506105c981856020860161057a565b6105d28161028e565b840191505092915050565b600060c0820190506105f2600083018961054f565b818103602083015261060481886105a4565b9050818103604083015261061881876105a4565b9050818103606083015261062c81866105a4565b9050818103608083015261064081856105a4565b905061064f60a0830184610525565b979650505050505050565b6000608082019050818103600083015261067481876105a4565b9050818103602083015261068881866105a4565b9050818103604083015261069c81856105a4565b905081810360608301526106b081846105a4565b905095945050505050565b7f455243313136373a20637265617465206661696c656400000000000000000000600082015250565b60006106f1601683610569565b91506106fc826106bb565b602082019050919050565b60006020820190508181036000830152610720816106e4565b905091905056fea26469706673582212207188ffd51ecfbf0ab0c6f8ea5a146960620739610ab4df86a5c8e9d441af791b64736f6c63430008110033",
  "devdoc": {
    "kind": "dev",
    "methods": {},
    "version": 1
  },
  "userdoc": {
    "kind": "user",
    "methods": {},
    "version": 1
  },
  "storageLayout": {
    "storage": [],
    "types": null
  }
}