{
  "address": "0xDc64a140Aa3E981100a9becA4E685f962f0cF6C9",
  "abi": [
    {
      "inputs": [
        {
          "internalType": "address",
          "name": "_placesFactory",
          "type": "address"
        }
      ],
      "stateMutability": "nonpayable",
      "type": "constructor"
    },
    {
      "inputs": [
        {
          "internalType": "string",
          "name": "_name",
          "type": "string"
        },
        {
          "internalType": "string",
          "name": "_tourismField",
          "type": "string"
        },
        {
          "internalType": "string",
          "name": "_latitude",
          "type": "string"
        },
        {
          "internalType": "string",
          "name": "_longitude",
          "type": "string"
        }
      ],
      "name": "addPlace",
      "outputs": [],
      "stateMutability": "nonpayable",
      "type": "function"
    },
    {
      "inputs": [
        {
          "internalType": "uint256",
          "name": "_placeId",
          "type": "uint256"
        },
        {
          "internalType": "string",
          "name": "_review",
          "type": "string"
        }
      ],
      "name": "addReview",
      "outputs": [],
      "stateMutability": "nonpayable",
      "type": "function"
    },
    {
      "inputs": [
        {
          "internalType": "uint256",
          "name": "_placeId",
          "type": "uint256"
        }
      ],
      "name": "getReviews",
      "outputs": [
        {
          "internalType": "string[]",
          "name": "",
          "type": "string[]"
        }
      ],
      "stateMutability": "view",
      "type": "function"
    },
    {
      "inputs": [],
      "name": "lastPlaceId",
      "outputs": [
        {
          "internalType": "uint256",
          "name": "",
          "type": "uint256"
        }
      ],
      "stateMutability": "view",
      "type": "function"
    },
    {
      "inputs": [
        {
          "internalType": "uint256",
          "name": "",
          "type": "uint256"
        }
      ],
      "name": "placesAddressByPlaceId",
      "outputs": [
        {
          "internalType": "address",
          "name": "",
          "type": "address"
        }
      ],
      "stateMutability": "view",
      "type": "function"
    }
  ],
  "transactionHash": "0x73d7f5268a56ba48dc6b834764048625ae258dd536abb6fb21d867968ba175ae",
  "args": [
    "0xe7f1725E7734CE288F8367e1Bb143E90bb3F0512"
  ],
  "numDeployments": 1,
  "solcInputHash": "5b1b746f80859b97735551ee8dbf9008",
  "bytecode": "0x608060405234801561001057600080fd5b50604051610f6c380380610f6c833981810160405281019061003291906100e3565b80600160006101000a81548173ffffffffffffffffffffffffffffffffffffffff021916908373ffffffffffffffffffffffffffffffffffffffff1602179055506000808190555050610110565b600080fd5b600073ffffffffffffffffffffffffffffffffffffffff82169050919050565b60006100b082610085565b9050919050565b6100c0816100a5565b81146100cb57600080fd5b50565b6000815190506100dd816100b7565b92915050565b6000602082840312156100f9576100f8610080565b5b6000610107848285016100ce565b91505092915050565b610e4d8061011f6000396000f3fe608060405234801561001057600080fd5b50600436106100575760003560e01c8063283d7a9c1461005c5780635bb0c5d61461007a57806363cd3484146100965780639d4a2255146100b2578063df3d5fd6146100e2575b600080fd5b610064610112565b6040516100719190610515565b60405180910390f35b610094600480360381019061008f91906106b6565b610118565b005b6100b060048036038101906100ab9190610712565b61025c565b005b6100cc60048036038101906100c791906107e9565b610377565b6040516100d99190610957565b60405180910390f35b6100fc60048036038101906100f791906107e9565b6104c9565b60405161010991906109ba565b60405180910390f35b60005481565b600073ffffffffffffffffffffffffffffffffffffffff166002600084815260200190815260200160002060009054906101000a900473ffffffffffffffffffffffffffffffffffffffff1673ffffffffffffffffffffffffffffffffffffffff16036101ba576040517f08c379a00000000000000000000000000000000000000000000000000000000081526004016101b190610a58565b60405180910390fd5b6002600083815260200190815260200160002060009054906101000a900473ffffffffffffffffffffffffffffffffffffffff1673ffffffffffffffffffffffffffffffffffffffff166348db8fa9826040518263ffffffff1660e01b81526004016102269190610ab1565b600060405180830381600087803b15801561024057600080fd5b505af1158015610254573d6000803e3d6000fd5b505050505050565b600160008082825461026e9190610b02565b92505081905550600160009054906101000a900473ffffffffffffffffffffffffffffffffffffffff1673ffffffffffffffffffffffffffffffffffffffff1663b93e63ec60005486858588336040518763ffffffff1660e01b81526004016102dc96959493929190610b36565b6020604051808303816000875af11580156102fb573d6000803e3d6000fd5b505050506040513d601f19601f8201168201806040525081019061031f9190610bdf565b600260008054815260200190815260200160002060006101000a81548173ffffffffffffffffffffffffffffffffffffffff021916908373ffffffffffffffffffffffffffffffffffffffff16021790555050505050565b6060600073ffffffffffffffffffffffffffffffffffffffff166002600084815260200190815260200160002060009054906101000a900473ffffffffffffffffffffffffffffffffffffffff1673ffffffffffffffffffffffffffffffffffffffff160361041b576040517f08c379a000000000000000000000000000000000000000000000000000000000815260040161041290610c58565b60405180910390fd5b6002600083815260200190815260200160002060009054906101000a900473ffffffffffffffffffffffffffffffffffffffff1673ffffffffffffffffffffffffffffffffffffffff16631b1e13246040518163ffffffff1660e01b8152600401600060405180830381865afa158015610499573d6000803e3d6000fd5b505050506040513d6000823e3d601f19601f820116820180604052508101906104c29190610dce565b9050919050565b60026020528060005260406000206000915054906101000a900473ffffffffffffffffffffffffffffffffffffffff1681565b6000819050919050565b61050f816104fc565b82525050565b600060208201905061052a6000830184610506565b92915050565b6000604051905090565b600080fd5b600080fd5b61054d816104fc565b811461055857600080fd5b50565b60008135905061056a81610544565b92915050565b600080fd5b600080fd5b6000601f19601f8301169050919050565b7f4e487b7100000000000000000000000000000000000000000000000000000000600052604160045260246000fd5b6105c38261057a565b810181811067ffffffffffffffff821117156105e2576105e161058b565b5b80604052505050565b60006105f5610530565b905061060182826105ba565b919050565b600067ffffffffffffffff8211156106215761062061058b565b5b61062a8261057a565b9050602081019050919050565b82818337600083830152505050565b600061065961065484610606565b6105eb565b90508281526020810184848401111561067557610674610575565b5b610680848285610637565b509392505050565b600082601f83011261069d5761069c610570565b5b81356106ad848260208601610646565b91505092915050565b600080604083850312156106cd576106cc61053a565b5b60006106db8582860161055b565b925050602083013567ffffffffffffffff8111156106fc576106fb61053f565b5b61070885828601610688565b9150509250929050565b6000806000806080858703121561072c5761072b61053a565b5b600085013567ffffffffffffffff81111561074a5761074961053f565b5b61075687828801610688565b945050602085013567ffffffffffffffff8111156107775761077661053f565b5b61078387828801610688565b935050604085013567ffffffffffffffff8111156107a4576107a361053f565b5b6107b087828801610688565b925050606085013567ffffffffffffffff8111156107d1576107d061053f565b5b6107dd87828801610688565b91505092959194509250565b6000602082840312156107ff576107fe61053a565b5b600061080d8482850161055b565b91505092915050565b600081519050919050565b600082825260208201905092915050565b6000819050602082019050919050565b600081519050919050565b600082825260208201905092915050565b60005b8381101561087c578082015181840152602081019050610861565b60008484015250505050565b600061089382610842565b61089d818561084d565b93506108ad81856020860161085e565b6108b68161057a565b840191505092915050565b60006108cd8383610888565b905092915050565b6000602082019050919050565b60006108ed82610816565b6108f78185610821565b93508360208202850161090985610832565b8060005b85811015610945578484038952815161092685826108c1565b9450610931836108d5565b925060208a0199505060018101905061090d565b50829750879550505050505092915050565b6000602082019050818103600083015261097181846108e2565b905092915050565b600073ffffffffffffffffffffffffffffffffffffffff82169050919050565b60006109a482610979565b9050919050565b6109b481610999565b82525050565b60006020820190506109cf60008301846109ab565b92915050565b600082825260208201905092915050565b7f526576696577206d75737420626520616464656420746f20616e20657869737460008201527f656e7420706c6163650000000000000000000000000000000000000000000000602082015250565b6000610a426029836109d5565b9150610a4d826109e6565b604082019050919050565b60006020820190508181036000830152610a7181610a35565b9050919050565b6000610a8382610842565b610a8d81856109d5565b9350610a9d81856020860161085e565b610aa68161057a565b840191505092915050565b60006020820190508181036000830152610acb8184610a78565b905092915050565b7f4e487b7100000000000000000000000000000000000000000000000000000000600052601160045260246000fd5b6000610b0d826104fc565b9150610b18836104fc565b9250828201905080821115610b3057610b2f610ad3565b5b92915050565b600060c082019050610b4b6000830189610506565b8181036020830152610b5d8188610a78565b90508181036040830152610b718187610a78565b90508181036060830152610b858186610a78565b90508181036080830152610b998185610a78565b9050610ba860a08301846109ab565b979650505050505050565b610bbc81610999565b8114610bc757600080fd5b50565b600081519050610bd981610bb3565b92915050565b600060208284031215610bf557610bf461053a565b5b6000610c0384828501610bca565b91505092915050565b7f506c61636520646f6573206e6f74206578697374000000000000000000000000600082015250565b6000610c426014836109d5565b9150610c4d82610c0c565b602082019050919050565b60006020820190508181036000830152610c7181610c35565b9050919050565b600067ffffffffffffffff821115610c9357610c9261058b565b5b602082029050602081019050919050565b600080fd5b6000610cbc610cb784610606565b6105eb565b905082815260208101848484011115610cd857610cd7610575565b5b610ce384828561085e565b509392505050565b600082601f830112610d0057610cff610570565b5b8151610d10848260208601610ca9565b91505092915050565b6000610d2c610d2784610c78565b6105eb565b90508083825260208201905060208402830185811115610d4f57610d4e610ca4565b5b835b81811015610d9657805167ffffffffffffffff811115610d7457610d73610570565b5b808601610d818982610ceb565b85526020850194505050602081019050610d51565b5050509392505050565b600082601f830112610db557610db4610570565b5b8151610dc5848260208601610d19565b91505092915050565b600060208284031215610de457610de361053a565b5b600082015167ffffffffffffffff811115610e0257610e0161053f565b5b610e0e84828501610da0565b9150509291505056fea264697066735822122070b153252ef17c77b9c79b8f70160751944e8875bc566239e5e9a841fa178ae264736f6c63430008110033",
  "devdoc": {
    "kind": "dev",
    "methods": {},
    "version": 1
  },
  "userdoc": {
    "kind": "user",
    "methods": {},
    "version": 1
  },
  "storageLayout": {
    "storage": [
      {
        "astId": 538,
        "contract": "contracts/Decentraveller.sol:Decentraveller",
        "label": "lastPlaceId",
        "offset": 0,
        "slot": "0",
        "type": "t_uint256"
      },
      {
        "astId": 541,
        "contract": "contracts/Decentraveller.sol:Decentraveller",
        "label": "placeFactory",
        "offset": 0,
        "slot": "1",
        "type": "t_contract(DecentravellerPlaceCloneFactory)815"
      },
      {
        "astId": 561,
        "contract": "contracts/Decentraveller.sol:Decentraveller",
        "label": "placesAddressByPlaceId",
        "offset": 0,
        "slot": "2",
        "type": "t_mapping(t_uint256,t_address)"
      }
    ],
    "types": {
      "t_address": {
        "encoding": "inplace",
        "label": "address",
        "numberOfBytes": "20"
      },
      "t_contract(DecentravellerPlaceCloneFactory)815": {
        "encoding": "inplace",
        "label": "contract DecentravellerPlaceCloneFactory",
        "numberOfBytes": "20"
      },
      "t_mapping(t_uint256,t_address)": {
        "encoding": "mapping",
        "key": "t_uint256",
        "label": "mapping(uint256 => address)",
        "numberOfBytes": "32",
        "value": "t_address"
      },
      "t_uint256": {
        "encoding": "inplace",
        "label": "uint256",
        "numberOfBytes": "32"
      }
    }
  }
}